{
  "address": "0xe7f1725E7734CE288F8367e1Bb143E90bb3F0512",
  "abi": [
    {
      "inputs": [
        {
          "internalType": "address",
          "name": "priceFeedAddress",
          "type": "address"
        }
      ],
      "stateMutability": "nonpayable",
      "type": "constructor"
    },
    {
      "inputs": [],
      "name": "NotOwner",
      "type": "error"
    },
    {
      "stateMutability": "payable",
      "type": "fallback"
    },
    {
      "inputs": [],
      "name": "MINIMUM_USD",
      "outputs": [
        {
          "internalType": "uint256",
          "name": "",
          "type": "uint256"
        }
      ],
      "stateMutability": "view",
      "type": "function"
    },
    {
      "inputs": [
        {
          "internalType": "address",
          "name": "",
          "type": "address"
        }
      ],
      "name": "addressToAmountFunded",
      "outputs": [
        {
          "internalType": "uint256",
          "name": "",
          "type": "uint256"
        }
      ],
      "stateMutability": "view",
      "type": "function"
    },
    {
      "inputs": [],
      "name": "fund",
      "outputs": [],
      "stateMutability": "payable",
      "type": "function"
    },
    {
      "inputs": [
        {
          "internalType": "uint256",
          "name": "",
          "type": "uint256"
        }
      ],
      "name": "funders",
      "outputs": [
        {
          "internalType": "address",
          "name": "",
          "type": "address"
        }
      ],
      "stateMutability": "view",
      "type": "function"
    },
    {
      "inputs": [],
      "name": "getVersion",
      "outputs": [
        {
          "internalType": "uint256",
          "name": "",
          "type": "uint256"
        }
      ],
      "stateMutability": "view",
      "type": "function"
    },
    {
      "inputs": [],
      "name": "i_owner",
      "outputs": [
        {
          "internalType": "address",
          "name": "",
          "type": "address"
        }
      ],
      "stateMutability": "view",
      "type": "function"
    },
    {
      "inputs": [],
      "name": "priceFeed",
      "outputs": [
        {
          "internalType": "contract AggregatorV3Interface",
          "name": "",
          "type": "address"
        }
      ],
      "stateMutability": "view",
      "type": "function"
    },
    {
      "inputs": [],
      "name": "withdraw",
      "outputs": [],
      "stateMutability": "nonpayable",
      "type": "function"
    },
    {
      "stateMutability": "payable",
      "type": "receive"
    }
  ],
  "transactionHash": "0x2144fcaf14ae7ddcb21dc6796390a07621ea55571a9396cf2f55f92784808ef9",
  "args": [
    "0x5FbDB2315678afecb367f032d93F642f64180aa3"
  ],
  "numDeployments": 1,
  "solcInputHash": "a6c2c6f10a8cea6bb954f274e4859df3",
  "bytecode": "0x60a06040523480156200001157600080fd5b50604051620010e7380380620010e78339818101604052810190620000379190620000cd565b3373ffffffffffffffffffffffffffffffffffffffff1660808173ffffffffffffffffffffffffffffffffffffffff1660601b8152505080600260006101000a81548173ffffffffffffffffffffffffffffffffffffffff021916908373ffffffffffffffffffffffffffffffffffffffff1602179055505062000152565b600081519050620000c78162000138565b92915050565b600060208284031215620000e657620000e562000133565b5b6000620000f684828501620000b6565b91505092915050565b60006200010c8262000113565b9050919050565b600073ffffffffffffffffffffffffffffffffffffffff82169050919050565b600080fd5b6200014381620000ff565b81146200014f57600080fd5b50565b60805160601c610f6f62000178600039600081816103c2015261064d0152610f6f6000f3fe60806040526004361061007f5760003560e01c8063741bef1a1161004e578063741bef1a14610142578063b60d42881461016d578063dba6335f14610177578063dc0d3dff146101a25761008e565b80630d8e6e2c146100985780633ccfd60b146100c35780633e47d6f3146100da5780636b69a592146101175761008e565b3661008e5761008c6101df565b005b6100966101df565b005b3480156100a457600080fd5b506100ad610319565b6040516100ba9190610abd565b60405180910390f35b3480156100cf57600080fd5b506100d86103c0565b005b3480156100e657600080fd5b5061010160048036038101906100fc919061089a565b610600565b60405161010e9190610abd565b60405180910390f35b34801561012357600080fd5b5061012c610618565b6040516101399190610abd565b60405180910390f35b34801561014e57600080fd5b50610157610625565b6040516101649190610a62565b60405180910390f35b6101756101df565b005b34801561018357600080fd5b5061018c61064b565b6040516101999190610a47565b60405180910390f35b3480156101ae57600080fd5b506101c960048036038101906101c491906108c7565b61066f565b6040516101d69190610a47565b60405180910390f35b6802b5e3af16b188000061021e600260009054906101000a900473ffffffffffffffffffffffffffffffffffffffff16346106ae90919063ffffffff16565b101561025f576040517f08c379a000000000000000000000000000000000000000000000000000000000815260040161025690610a9d565b60405180910390fd5b346000803373ffffffffffffffffffffffffffffffffffffffff1673ffffffffffffffffffffffffffffffffffffffff16815260200190815260200160002060008282546102ad9190610af4565b925050819055506001339080600181540180825580915050600190039060005260206000200160009091909190916101000a81548173ffffffffffffffffffffffffffffffffffffffff021916908373ffffffffffffffffffffffffffffffffffffffff160217905550565b6000600260009054906101000a900473ffffffffffffffffffffffffffffffffffffffff1673ffffffffffffffffffffffffffffffffffffffff166354fd4d506040518163ffffffff1660e01b815260040160206040518083038186803b15801561038357600080fd5b505afa158015610397573d6000803e3d6000fd5b505050506040513d601f19601f820116820180604052508101906103bb91906108f4565b905090565b7f000000000000000000000000000000000000000000000000000000000000000073ffffffffffffffffffffffffffffffffffffffff163373ffffffffffffffffffffffffffffffffffffffff1614610445576040517f30cd747100000000000000000000000000000000000000000000000000000000815260040160405180910390fd5b60005b6001805490508110156104f05760006001828154811061046b5761046a610e25565b5b9060005260206000200160009054906101000a900473ffffffffffffffffffffffffffffffffffffffff16905060008060008373ffffffffffffffffffffffffffffffffffffffff1673ffffffffffffffffffffffffffffffffffffffff168152602001908152602001600020819055505080806104e890610d7e565b915050610448565b50600067ffffffffffffffff81111561050c5761050b610e54565b5b60405190808252806020026020018201604052801561053a5781602001602082028036833780820191505090505b506001908051906020019061055092919061078a565b5060003373ffffffffffffffffffffffffffffffffffffffff164760405161057790610a32565b60006040518083038185875af1925050503d80600081146105b4576040519150601f19603f3d011682016040523d82523d6000602084013e6105b9565b606091505b50509050806105fd576040517f08c379a00000000000000000000000000000000000000000000000000000000081526004016105f490610a7d565b60405180910390fd5b50565b60006020528060005260406000206000915090505481565b6802b5e3af16b188000081565b600260009054906101000a900473ffffffffffffffffffffffffffffffffffffffff1681565b7f000000000000000000000000000000000000000000000000000000000000000081565b6001818154811061067f57600080fd5b906000526020600020016000915054906101000a900473ffffffffffffffffffffffffffffffffffffffff1681565b6000806106ba836106ea565b90506000670de0b6b3a764000085836106d39190610c92565b6106dd9190610b4a565b9050809250505092915050565b6000808273ffffffffffffffffffffffffffffffffffffffff1663feaf968c6040518163ffffffff1660e01b815260040160a06040518083038186803b15801561073357600080fd5b505afa158015610747573d6000803e3d6000fd5b505050506040513d601f19601f8201168201806040525081019061076b9190610921565b5050509150506402540be400816107829190610b7b565b915050919050565b828054828255906000526020600020908101928215610803579160200282015b828111156108025782518260006101000a81548173ffffffffffffffffffffffffffffffffffffffff021916908373ffffffffffffffffffffffffffffffffffffffff160217905550916020019190600101906107aa565b5b5090506108109190610814565b5090565b5b8082111561082d576000816000905550600101610815565b5090565b60008135905061084081610edd565b92915050565b60008151905061085581610ef4565b92915050565b60008135905061086a81610f0b565b92915050565b60008151905061087f81610f0b565b92915050565b60008151905061089481610f22565b92915050565b6000602082840312156108b0576108af610e83565b5b60006108be84828501610831565b91505092915050565b6000602082840312156108dd576108dc610e83565b5b60006108eb8482850161085b565b91505092915050565b60006020828403121561090a57610909610e83565b5b600061091884828501610870565b91505092915050565b600080600080600060a0868803121561093d5761093c610e83565b5b600061094b88828901610885565b955050602061095c88828901610846565b945050604061096d88828901610870565b935050606061097e88828901610870565b925050608061098f88828901610885565b9150509295509295909350565b6109a581610cec565b82525050565b6109b481610d48565b82525050565b60006109c7600b83610ae3565b91506109d282610e88565b602082019050919050565b60006109ea601b83610ae3565b91506109f582610eb1565b602082019050919050565b6000610a0d600083610ad8565b9150610a1882610eda565b600082019050919050565b610a2c81610d28565b82525050565b6000610a3d82610a00565b9150819050919050565b6000602082019050610a5c600083018461099c565b92915050565b6000602082019050610a7760008301846109ab565b92915050565b60006020820190508181036000830152610a96816109ba565b9050919050565b60006020820190508181036000830152610ab6816109dd565b9050919050565b6000602082019050610ad26000830184610a23565b92915050565b600081905092915050565b600082825260208201905092915050565b6000610aff82610d28565b9150610b0a83610d28565b9250827fffffffffffffffffffffffffffffffffffffffffffffffffffffffffffffffff03821115610b3f57610b3e610dc7565b5b828201905092915050565b6000610b5582610d28565b9150610b6083610d28565b925082610b7057610b6f610df6565b5b828204905092915050565b6000610b8682610cfe565b9150610b9183610cfe565b9250827f7fffffffffffffffffffffffffffffffffffffffffffffffffffffffffffffff0482116000841360008413161615610bd057610bcf610dc7565b5b817f80000000000000000000000000000000000000000000000000000000000000000583126000841260008413161615610c0d57610c0c610dc7565b5b827f80000000000000000000000000000000000000000000000000000000000000000582126000841360008412161615610c4a57610c49610dc7565b5b827f7fffffffffffffffffffffffffffffffffffffffffffffffffffffffffffffff0582126000841260008412161615610c8757610c86610dc7565b5b828202905092915050565b6000610c9d82610d28565b9150610ca883610d28565b9250817fffffffffffffffffffffffffffffffffffffffffffffffffffffffffffffffff0483118215151615610ce157610ce0610dc7565b5b828202905092915050565b6000610cf782610d08565b9050919050565b6000819050919050565b600073ffffffffffffffffffffffffffffffffffffffff82169050919050565b6000819050919050565b600069ffffffffffffffffffff82169050919050565b6000610d5382610d5a565b9050919050565b6000610d6582610d6c565b9050919050565b6000610d7782610d08565b9050919050565b6000610d8982610d28565b91507fffffffffffffffffffffffffffffffffffffffffffffffffffffffffffffffff821415610dbc57610dbb610dc7565b5b600182019050919050565b7f4e487b7100000000000000000000000000000000000000000000000000000000600052601160045260246000fd5b7f4e487b7100000000000000000000000000000000000000000000000000000000600052601260045260246000fd5b7f4e487b7100000000000000000000000000000000000000000000000000000000600052603260045260246000fd5b7f4e487b7100000000000000000000000000000000000000000000000000000000600052604160045260246000fd5b600080fd5b7f43616c6c206661696c6564000000000000000000000000000000000000000000600082015250565b7f596f75206e65656420746f207370656e64206d6f726520455448210000000000600082015250565b50565b610ee681610cec565b8114610ef157600080fd5b50565b610efd81610cfe565b8114610f0857600080fd5b50565b610f1481610d28565b8114610f1f57600080fd5b50565b610f2b81610d32565b8114610f3657600080fd5b5056fea2646970667358221220dfb2433e1da0db95a7b898f034654c49375c102c5f3cb1a1995c6dd754b468aa64736f6c63430008070033",
  "devdoc": {
    "kind": "dev",
    "methods": {},
    "version": 1
  },
  "userdoc": {
    "kind": "user",
    "methods": {},
    "version": 1
  },
  "storageLayout": {
    "storage": [
      {
        "astId": 58,
        "contract": "contracts/FundMe.sol:FundMe",
        "label": "addressToAmountFunded",
        "offset": 0,
        "slot": "0",
        "type": "t_mapping(t_address,t_uint256)"
      },
      {
        "astId": 61,
        "contract": "contracts/FundMe.sol:FundMe",
        "label": "funders",
        "offset": 0,
        "slot": "1",
        "type": "t_array(t_address)dyn_storage"
      },
      {
        "astId": 73,
        "contract": "contracts/FundMe.sol:FundMe",
        "label": "priceFeed",
        "offset": 0,
        "slot": "2",
        "type": "t_contract(AggregatorV3Interface)45"
      }
    ],
    "types": {
      "t_address": {
        "encoding": "inplace",
        "label": "address",
        "numberOfBytes": "20"
      },
      "t_array(t_address)dyn_storage": {
        "base": "t_address",
        "encoding": "dynamic_array",
        "label": "address[]",
        "numberOfBytes": "32"
      },
      "t_contract(AggregatorV3Interface)45": {
        "encoding": "inplace",
        "label": "contract AggregatorV3Interface",
        "numberOfBytes": "20"
      },
      "t_mapping(t_address,t_uint256)": {
        "encoding": "mapping",
        "key": "t_address",
        "label": "mapping(address => uint256)",
        "numberOfBytes": "32",
        "value": "t_uint256"
      },
      "t_uint256": {
        "encoding": "inplace",
        "label": "uint256",
        "numberOfBytes": "32"
      }
    }
  }
}